{"contracts/TrustChain.sol":{"TrustChain":{"abi":[{"inputs":[],"stateMutability":"nonpayable","type":"constructor"},{"anonymous":false,"inputs":[{"indexed":true,"internalType":"string","name":"productId","type":"string"},{"indexed":true,"internalType":"string","name":"boxId","type":"string"}],"name":"ProductRegistered","type":"event"},{"anonymous":false,"inputs":[{"indexed":true,"internalType":"string","name":"productId","type":"string"}],"name":"ProductSecretSet","type":"event"},{"anonymous":false,"inputs":[{"indexed":true,"internalType":"string","name":"productId","type":"string"}],"name":"ProductShipped","type":"event"},{"anonymous":false,"inputs":[{"indexed":true,"internalType":"string","name":"productId","type":"string"}],"name":"ProductSold","type":"event"},{"anonymous":false,"inputs":[{"indexed":true,"internalType":"string","name":"productId","type":"string"}],"name":"ProductVerified","type":"event"},{"inputs":[{"internalType":"string","name":"_productId","type":"string"}],"name":"getProduct","outputs":[{"components":[{"internalType":"string","name":"productId","type":"string"},{"internalType":"string","name":"boxId","type":"string"},{"internalType":"string","name":"name","type":"string"},{"internalType":"string","name":"category","type":"string"},{"internalType":"string","name":"manufacturer","type":"string"},{"internalType":"string","name":"manufacturerDate","type":"string"},{"internalType":"string","name":"manufacturePlace","type":"string"},{"internalType":"string","name":"modelNumber","type":"string"},{"internalType":"string","name":"serialNumber","type":"string"},{"internalType":"string","name":"warrantyPeriod","type":"string"},{"internalType":"string","name":"batchNumber","type":"string"},{"internalType":"string","name":"color","type":"string"},{"internalType":"string","name":"specs","type":"string"},{"internalType":"uint256","name":"price","type":"uint256"},{"internalType":"string","name":"image","type":"string"},{"internalType":"bool","name":"shipped","type":"bool"},{"internalType":"bool","name":"verifiedByRetailer","type":"bool"},{"internalType":"bool","name":"sold","type":"bool"}],"internalType":"struct TrustChain.Product","name":"","type":"tuple"}],"stateMutability":"view","type":"function"},{"inputs":[{"internalType":"string","name":"_productId","type":"string"}],"name":"getProductSecret","outputs":[{"internalType":"string","name":"","type":"string"}],"stateMutability":"view","type":"function"},{"inputs":[{"internalType":"string","name":"_boxId","type":"string"}],"name":"getProductsByBox","outputs":[{"internalType":"string[]","name":"","type":"string[]"}],"stateMutability":"view","type":"function"},{"inputs":[],"name":"owner","outputs":[{"internalType":"address","name":"","type":"address"}],"stateMutability":"view","type":"function"},{"inputs":[{"internalType":"string","name":"_productId","type":"string"},{"internalType":"string","name":"_boxId","type":"string"},{"internalType":"string","name":"_name","type":"string"},{"internalType":"string","name":"_category","type":"string"},{"internalType":"string","name":"_manufacturer","type":"string"},{"internalType":"string","name":"_manufacturerDate","type":"string"},{"internalType":"string","name":"_manufacturePlace","type":"string"},{"internalType":"string","name":"_modelNumber","type":"string"},{"internalType":"string","name":"_serialNumber","type":"string"},{"internalType":"string","name":"_warrantyPeriod","type":"string"},{"internalType":"string","name":"_batchNumber","type":"string"},{"internalType":"string","name":"_color","type":"string"},{"internalType":"string","name":"_specs","type":"string"},{"internalType":"uint256","name":"_price","type":"uint256"},{"internalType":"string","name":"_image","type":"string"}],"name":"registerProduct","outputs":[],"stateMutability":"nonpayable","type":"function"},{"inputs":[{"internalType":"string","name":"_productId","type":"string"}],"name":"saleComplete","outputs":[],"stateMutability":"nonpayable","type":"function"},{"inputs":[{"internalType":"string","name":"_productId","type":"string"},{"internalType":"string","name":"_secret","type":"string"}],"name":"setProductSecret","outputs":[],"stateMutability":"nonpayable","type":"function"},{"inputs":[{"internalType":"string","name":"_productId","type":"string"}],"name":"shipProduct","outputs":[],"stateMutability":"nonpayable","type":"function"},{"inputs":[{"internalType":"string","name":"_productId","type":"string"}],"name":"verifyRetailer","outputs":[],"stateMutability":"nonpayable","type":"function"}],"evm":{"bytecode":{"linkReferences":{},"object":"6080806040523461002857600080546001600160a01b031916331790556110dc908161002e8239f35b600080fdfe6080604052600436101561001257600080fd5b60003560e01c80631768850f14610ca4578063289496bb14610b965780634ab0af7614610ac85780634e260d3c1461066c57806368111cce146102b05780638da5cb5b14610287578063dd9f8567146101e2578063ef7ac6ba146101465763f6e2b1ad1461007f57600080fd5b346101415760203660031901126101415760043567ffffffffffffffff8111610141576100b361011a913690600401610d81565b600f6100ff60206040516100ee6100e78651928481818a01956100d7818389610dd8565b8101600181520301902054610e20565b1515610f8a565b604051809381928751928391610dd8565b8101600181520301902001600160ff19825416179055610f6a565b7f9dbe2d347001eec4f99473edc6161746246c3bd920ebc7aec9ea509774a6a87c600080a2005b600080fd5b346101415760203660031901126101415760043567ffffffffffffffff81116101415761017a6101bb913690600401610d81565b600f61019e60206040516100ee6100e78651928481818a01956100d7818389610dd8565b810160018152030190200161010061ff0019825416179055610f6a565b7f9bb3d92ff53ce504ee358d5ff79f13221b4836773184e8ec3e9e299f7d032aee600080a2005b34610141576020806003193601126101415760043567ffffffffffffffff81116101415761025f8261021b61026e933690600401610d81565b61023060018060a01b03600054163314610fc7565b6040519061024e6100e78251938581818601966100d781838a610dd8565b604051938492839251928391610dd8565b81016003815203019020611000565b90610283604051928284938452830190610dfb565b0390f35b34610141576000366003190112610141576000546040516001600160a01b039091168152602090f35b346101415760203660031901126101415760043567ffffffffffffffff81116101415760206102e6610384923690600401610d81565b60006102206040516102f781610d42565b606081526060858201526060604082015260608082015260606080820152606060a0820152606060c0820152606060e082015260606101008201526060610120820152606061014082015260606101608201526060610180820152826101a082015260606101c0820152826101e08201528261020082015201528160405193828580945193849201610dd8565b8101600181520301902060ff600f6040519261039f84610d42565b6103a881611000565b84526103b660018201611000565b60208501526103c760028201611000565b60408501526103d860038201611000565b60608501526103e960048201611000565b60808501526103fa60058201611000565b60a085015261040b60068201611000565b60c085015261041c60078201611000565b60e085015261042d60088201611000565b61010085015261043f60098201611000565b610120850152610451600a8201611000565b610140850152610463600b8201611000565b610160850152610475600c8201611000565b610180850152600d8101546101a0850152610492600e8201611000565b6101c0850152015481811615156101e0840152818160081c16151561020084015260101c16151561022082015260405180916020825261022061064361061f6106076105ef6105d76105bf6105a761059061057a6105648b8d608061054f61053a61052461050e86516102406020880152610260870190610dfb565b6020870151868203601f19016040880152610dfb565b6040860151858203601f19016060870152610dfb565b6060850151848203601f190184860152610dfb565b9201519060a0601f1982850301910152610dfb565b60a08c01518d8203601f190160c08f0152610dfb565b60c08b01518c8203601f190160e08e0152610dfb565b60e08a01518b8203601f19016101008d0152610dfb565b6101008901518a8203601f19016101208c0152610dfb565b610120880151898203601f19016101408b0152610dfb565b610140870151888203601f19016101608a0152610dfb565b610160860151878203601f1901610180890152610dfb565b610180850151868203601f19016101a0880152610dfb565b6101a08401516101c08601526101c0840151601f19868303016101e0870152610dfb565b916101e08101511515610200850152610200810151151582850152015115156102408301520390f35b34610141576101e03660031901126101415767ffffffffffffffff6004358181116101415761069f903690600401610d81565b602435828111610141576106b7903690600401610d81565b91604435818111610141576106d0903690600401610d81565b90606435818111610141576106e9903690600401610d81565b60843582811161014157610701903690600401610d81565b60a43583811161014157610719903690600401610d81565b60c43584811161014157610731903690600401610d81565b60e43585811161014157610749903690600401610d81565b6101043586811161014157610762903690600401610d81565b90610124358781116101415761077c903690600401610d81565b926101443588811161014157610796903690600401610d81565b9461016435898111610141576107b0903690600401610d81565b96610184358a8111610141576107ca903690600401610d81565b986101c4359a8b11610141576108026100d760208f9d6107ee903690600401610d81565b9d8160405193828580945193849201610dd8565b610a92578c9b8e60206040519e8f9061081a82610d42565b8152015260408d015260608c015260808b015260a08a015260c089015260e08801526101008701526101208601526101408501526101608401526101808301526101a4356101a08301526101c082015260006101e082015260006102008201526000610220820152600f60405160208185516108998183858a01610dd8565b810160018152030190206108ae835182610e5a565b6108bf602084015160018301610e5a565b6108d0604084015160028301610e5a565b6108e1606084015160038301610e5a565b6108f2608084015160048301610e5a565b61090360a084015160058301610e5a565b61091460c084015160068301610e5a565b61092560e084015160078301610e5a565b61093761010084015160088301610e5a565b61094961012084015160098301610e5a565b61095b610140840151600a8301610e5a565b61096d610160840151600b8301610e5a565b61097f610180840151600c8301610e5a565b6101a0830151600d82015561099c6101c0840151600e8301610e5a565b01906101e0810151151590825460ff62ff000061022061ff00610200860151151560081b16940151151560101b1693169062ffffff1916171717905560405160208184516109ed8183858901610dd8565b8101600281520301902080549168010000000000000000831015610a7c5760018301808355831015610a6657610a3381610a3e94610a3894600052602060002001610e5a565b610f6a565b91610f6a565b907f05c683c8ef124ed98b107dcf80c644abc011626816b5b3a73e3f6d518c0cd778600080a3005b634e487b7160e01b600052603260045260246000fd5b634e487b7160e01b600052604160045260246000fd5b60405162461bcd60e51b815260206004820152600e60248201526d416c72656164792065786973747360901b6044820152606490fd5b346101415760403660031901126101415767ffffffffffffffff60043581811161014157610afa903690600401610d81565b60243591821161014157610a33610b18610b6f933690600401610d81565b610b2d60018060a01b03600054163314610fc7565b610b606020604051610b4f6100e78751928481818b01956100d7818389610dd8565b604051809381928851928391610dd8565b81016003815203019020610e5a565b7f3f4e037f0753ef36628818d9a11f1d3bd69f98f5146913285923edfb1c4d7033600080a2005b34610141576020806003193601126101415767ffffffffffffffff6004358181116101415782610bcd610be0923690600401610d81565b8160405193828580945193849201610dd8565b810160028152030190208054918211610a7c57829060405192610c08838260051b0185610d5f565b8084528284018092600052836000206000915b838310610c825750505050604051918083019381845251809452604083019360408160051b85010192916000955b828710610c565785850386f35b909192938280610c72600193603f198a82030186528851610dfb565b9601920196019592919092610c49565b6001868192610c93859a999a611000565b815201920192019190959495610c1b565b346101415760203660031901126101415760043567ffffffffffffffff811161014157610cd8610d1b913690600401610d81565b600f610cfc60206040516100ee6100e78651928481818a01956100d7818389610dd8565b81016001815203019020016201000062ff000019825416179055610f6a565b7f4e4003378fe790a19a351b9848e06179b5d6e7a3262a28cfc05f8bacba35857a600080a2005b610240810190811067ffffffffffffffff821117610a7c57604052565b90601f8019910116810190811067ffffffffffffffff821117610a7c57604052565b81601f820112156101415780359067ffffffffffffffff8211610a7c5760405192610db6601f8401601f191660200185610d5f565b8284526020838301011161014157816000926020809301838601378301015290565b60005b838110610deb5750506000910152565b8181015183820152602001610ddb565b90602091610e1481518092818552858086019101610dd8565b601f01601f1916010190565b90600182811c92168015610e50575b6020831014610e3a57565b634e487b7160e01b600052602260045260246000fd5b91607f1691610e2f565b919091825167ffffffffffffffff8111610a7c57610e788254610e20565b601f8111610f22575b50602080601f8311600114610ebe575081929394600092610eb3575b50508160011b916000199060031b1c1916179055565b015190503880610e9d565b90601f198316958460005282600020926000905b888210610f0a57505083600195969710610ef1575b505050811b019055565b015160001960f88460031b161c19169055388080610ee7565b80600185968294968601518155019501930190610ed2565b600083815260208120601f840160051c81019260208510610f60575b601f0160051c01915b828110610f55575050610e81565b818155600101610f47565b9092508290610f3e565b610f8290602060405192828480945193849201610dd8565b810103902090565b15610f9157565b60405162461bcd60e51b815260206004820152600e60248201526d139bdd081c9959da5cdd195c995960921b6044820152606490fd5b15610fce57565b60405162461bcd60e51b815260206004820152600a60248201526927b7363c9037bbb732b960b11b6044820152606490fd5b906040519182600082549261101484610e20565b9081845260019485811690816000146110835750600114611040575b505061103e92500383610d5f565b565b9093915060005260209081600020936000915b81831061106b57505061103e93508201013880611030565b85548884018501529485019487945091830191611053565b91505061103e94506020925060ff191682840152151560051b820101388061103056fea264697066735822122030d9cf89dafc6055caa7bb8aebe8aed6b503295064d617fa0c85d4a237fe0d6f64736f6c63430008140033","opcodes":"PUSH1 0x80 DUP1 PUSH1 0x40 MSTORE CALLVALUE PUSH2 0x28 JUMPI PUSH1 0x0 DUP1 SLOAD PUSH1 0x1 PUSH1 0x1 PUSH1 0xA0 SHL SUB NOT AND CALLER OR SWAP1 SSTORE PUSH2 0x10DC SWAP1 DUP2 PUSH2 0x2E DUP3 CODECOPY RETURN JUMPDEST PUSH1 0x0 DUP1 REVERT INVALID PUSH1 0x80 PUSH1 0x40 MSTORE PUSH1 0x4 CALLDATASIZE LT ISZERO PUSH2 0x12 JUMPI PUSH1 0x0 DUP1 REVERT JUMPDEST PUSH1 0x0 CALLDATALOAD PUSH1 0xE0 SHR DUP1 PUSH4 0x1768850F EQ PUSH2 0xCA4 JUMPI DUP1 PUSH4 0x289496BB EQ PUSH2 0xB96 JUMPI DUP1 PUSH4 0x4AB0AF76 EQ PUSH2 0xAC8 JUMPI DUP1 PUSH4 0x4E260D3C EQ PUSH2 0x66C JUMPI DUP1 PUSH4 0x68111CCE EQ PUSH2 0x2B0 JUMPI DUP1 PUSH4 0x8DA5CB5B EQ PUSH2 0x287 JUMPI DUP1 PUSH4 0xDD9F8567 EQ PUSH2 0x1E2 JUMPI DUP1 PUSH4 0xEF7AC6BA EQ PUSH2 0x146 JUMPI PUSH4 0xF6E2B1AD EQ PUSH2 0x7F JUMPI PUSH1 0x0 DUP1 REVERT JUMPDEST CALLVALUE PUSH2 0x141 JUMPI PUSH1 0x20 CALLDATASIZE PUSH1 0x3 NOT ADD SLT PUSH2 0x141 JUMPI PUSH1 0x4 CALLDATALOAD PUSH8 0xFFFFFFFFFFFFFFFF DUP2 GT PUSH2 0x141 JUMPI PUSH2 0xB3 PUSH2 0x11A SWAP2 CALLDATASIZE SWAP1 PUSH1 0x4 ADD PUSH2 0xD81 JUMP JUMPDEST PUSH1 0xF PUSH2 0xFF PUSH1 0x20 PUSH1 0x40 MLOAD PUSH2 0xEE PUSH2 0xE7 DUP7 MLOAD SWAP3 DUP5 DUP2 DUP2 DUP11 ADD SWAP6 PUSH2 0xD7 DUP2 DUP4 DUP10 PUSH2 0xDD8 JUMP JUMPDEST DUP2 ADD PUSH1 0x1 DUP2 MSTORE SUB ADD SWAP1 KECCAK256 SLOAD PUSH2 0xE20 JUMP JUMPDEST ISZERO ISZERO PUSH2 0xF8A JUMP JUMPDEST PUSH1 0x40 MLOAD DUP1 SWAP4 DUP2 SWAP3 DUP8 MLOAD SWAP3 DUP4 SWAP2 PUSH2 0xDD8 JUMP JUMPDEST DUP2 ADD PUSH1 0x1 DUP2 MSTORE SUB ADD SWAP1 KECCAK256 ADD PUSH1 0x1 PUSH1 0xFF NOT DUP3 SLOAD AND OR SWAP1 SSTORE PUSH2 0xF6A JUMP JUMPDEST PUSH32 0x9DBE2D347001EEC4F99473EDC6161746246C3BD920EBC7AEC9EA509774A6A87C PUSH1 0x0 DUP1 LOG2 STOP JUMPDEST PUSH1 0x0 DUP1 REVERT JUMPDEST CALLVALUE PUSH2 0x141 JUMPI PUSH1 0x20 CALLDATASIZE PUSH1 0x3 NOT ADD SLT PUSH2 0x141 JUMPI PUSH1 0x4 CALLDATALOAD PUSH8 0xFFFFFFFFFFFFFFFF DUP2 GT PUSH2 0x141 JUMPI PUSH2 0x17A PUSH2 0x1BB SWAP2 CALLDATASIZE SWAP1 PUSH1 0x4 ADD PUSH2 0xD81 JUMP JUMPDEST PUSH1 0xF PUSH2 0x19E PUSH1 0x20 PUSH1 0x40 MLOAD PUSH2 0xEE PUSH2 0xE7 DUP7 MLOAD SWAP3 DUP5 DUP2 DUP2 DUP11 ADD SWAP6 PUSH2 0xD7 DUP2 DUP4 DUP10 PUSH2 0xDD8 JUMP JUMPDEST DUP2 ADD PUSH1 0x1 DUP2 MSTORE SUB ADD SWAP1 KECCAK256 ADD PUSH2 0x100 PUSH2 0xFF00 NOT DUP3 SLOAD AND OR SWAP1 SSTORE PUSH2 0xF6A JUMP JUMPDEST PUSH32 0x9BB3D92FF53CE504EE358D5FF79F13221B4836773184E8EC3E9E299F7D032AEE PUSH1 0x0 DUP1 LOG2 STOP JUMPDEST CALLVALUE PUSH2 0x141 JUMPI PUSH1 0x20 DUP1 PUSH1 0x3 NOT CALLDATASIZE ADD SLT PUSH2 0x141 JUMPI PUSH1 0x4 CALLDATALOAD PUSH8 0xFFFFFFFFFFFFFFFF DUP2 GT PUSH2 0x141 JUMPI PUSH2 0x25F DUP3 PUSH2 0x21B PUSH2 0x26E SWAP4 CALLDATASIZE SWAP1 PUSH1 0x4 ADD PUSH2 0xD81 JUMP JUMPDEST PUSH2 0x230 PUSH1 0x1 DUP1 PUSH1 0xA0 SHL SUB PUSH1 0x0 SLOAD AND CALLER EQ PUSH2 0xFC7 JUMP JUMPDEST PUSH1 0x40 MLOAD SWAP1 PUSH2 0x24E PUSH2 0xE7 DUP3 MLOAD SWAP4 DUP6 DUP2 DUP2 DUP7 ADD SWAP7 PUSH2 0xD7 DUP2 DUP4 DUP11 PUSH2 0xDD8 JUMP JUMPDEST PUSH1 0x40 MLOAD SWAP4 DUP5 SWAP3 DUP4 SWAP3 MLOAD SWAP3 DUP4 SWAP2 PUSH2 0xDD8 JUMP JUMPDEST DUP2 ADD PUSH1 0x3 DUP2 MSTORE SUB ADD SWAP1 KECCAK256 PUSH2 0x1000 JUMP JUMPDEST SWAP1 PUSH2 0x283 PUSH1 0x40 MLOAD SWAP3 DUP3 DUP5 SWAP4 DUP5 MSTORE DUP4 ADD SWAP1 PUSH2 0xDFB JUMP JUMPDEST SUB SWAP1 RETURN JUMPDEST CALLVALUE PUSH2 0x141 JUMPI PUSH1 0x0 CALLDATASIZE PUSH1 0x3 NOT ADD SLT PUSH2 0x141 JUMPI PUSH1 0x0 SLOAD PUSH1 0x40 MLOAD PUSH1 0x1 PUSH1 0x1 PUSH1 0xA0 SHL SUB SWAP1 SWAP2 AND DUP2 MSTORE PUSH1 0x20 SWAP1 RETURN JUMPDEST CALLVALUE PUSH2 0x141 JUMPI PUSH1 0x20 CALLDATASIZE PUSH1 0x3 NOT ADD SLT PUSH2 0x141 JUMPI PUSH1 0x4 CALLDATALOAD PUSH8 0xFFFFFFFFFFFFFFFF DUP2 GT PUSH2 0x141 JUMPI PUSH1 0x20 PUSH2 0x2E6 PUSH2 0x384 SWAP3 CALLDATASIZE SWAP1 PUSH1 0x4 ADD PUSH2 0xD81 JUMP JUMPDEST PUSH1 0x0 PUSH2 0x220 PUSH1 0x40 MLOAD PUSH2 0x2F7 DUP2 PUSH2 0xD42 JUMP JUMPDEST PUSH1 0x60 DUP2 MSTORE PUSH1 0x60 DUP6 DUP3 ADD MSTORE PUSH1 0x60 PUSH1 0x40 DUP3 ADD MSTORE PUSH1 0x60 DUP1 DUP3 ADD MSTORE PUSH1 0x60 PUSH1 0x80 DUP3 ADD MSTORE PUSH1 0x60 PUSH1 0xA0 DUP3 ADD MSTORE PUSH1 0x60 PUSH1 0xC0 DUP3 ADD MSTORE PUSH1 0x60 PUSH1 0xE0 DUP3 ADD MSTORE PUSH1 0x60 PUSH2 0x100 DUP3 ADD MSTORE PUSH1 0x60 PUSH2 0x120 DUP3 ADD MSTORE PUSH1 0x60 PUSH2 0x140 DUP3 ADD MSTORE PUSH1 0x60 PUSH2 0x160 DUP3 ADD MSTORE PUSH1 0x60 PUSH2 0x180 DUP3 ADD MSTORE DUP3 PUSH2 0x1A0 DUP3 ADD MSTORE PUSH1 0x60 PUSH2 0x1C0 DUP3 ADD MSTORE DUP3 PUSH2 0x1E0 DUP3 ADD MSTORE DUP3 PUSH2 0x200 DUP3 ADD MSTORE ADD MSTORE DUP2 PUSH1 0x40 MLOAD SWAP4 DUP3 DUP6 DUP1 SWAP5 MLOAD SWAP4 DUP5 SWAP3 ADD PUSH2 0xDD8 JUMP JUMPDEST DUP2 ADD PUSH1 0x1 DUP2 MSTORE SUB ADD SWAP1 KECCAK256 PUSH1 0xFF PUSH1 0xF PUSH1 0x40 MLOAD SWAP3 PUSH2 0x39F DUP5 PUSH2 0xD42 JUMP JUMPDEST PUSH2 0x3A8 DUP2 PUSH2 0x1000 JUMP JUMPDEST DUP5 MSTORE PUSH2 0x3B6 PUSH1 0x1 DUP3 ADD PUSH2 0x1000 JUMP JUMPDEST PUSH1 0x20 DUP6 ADD MSTORE PUSH2 0x3C7 PUSH1 0x2 DUP3 ADD PUSH2 0x1000 JUMP JUMPDEST PUSH1 0x40 DUP6 ADD MSTORE PUSH2 0x3D8 PUSH1 0x3 DUP3 ADD PUSH2 0x1000 JUMP JUMPDEST PUSH1 0x60 DUP6 ADD MSTORE PUSH2 0x3E9 PUSH1 0x4 DUP3 ADD PUSH2 0x1000 JUMP JUMPDEST PUSH1 0x80 DUP6 ADD MSTORE PUSH2 0x3FA PUSH1 0x5 DUP3 ADD PUSH2 0x1000 JUMP JUMPDEST PUSH1 0xA0 DUP6 ADD MSTORE PUSH2 0x40B PUSH1 0x6 DUP3 ADD PUSH2 0x1000 JUMP JUMPDEST PUSH1 0xC0 DUP6 ADD MSTORE PUSH2 0x41C PUSH1 0x7 DUP3 ADD PUSH2 0x1000 JUMP JUMPDEST PUSH1 0xE0 DUP6 ADD MSTORE PUSH2 0x42D PUSH1 0x8 DUP3 ADD PUSH2 0x1000 JUMP JUMPDEST PUSH2 0x100 DUP6 ADD MSTORE PUSH2 0x43F PUSH1 0x9 DUP3 ADD PUSH2 0x1000 JUMP JUMPDEST PUSH2 0x120 DUP6 ADD MSTORE PUSH2 0x451 PUSH1 0xA DUP3 ADD PUSH2 0x1000 JUMP JUMPDEST PUSH2 0x140 DUP6 ADD MSTORE PUSH2 0x463 PUSH1 0xB DUP3 ADD PUSH2 0x1000 JUMP JUMPDEST PUSH2 0x160 DUP6 ADD MSTORE PUSH2 0x475 PUSH1 0xC DUP3 ADD PUSH2 0x1000 JUMP JUMPDEST PUSH2 0x180 DUP6 ADD MSTORE PUSH1 0xD DUP2 ADD SLOAD PUSH2 0x1A0 DUP6 ADD MSTORE PUSH2 0x492 PUSH1 0xE DUP3 ADD PUSH2 0x1000 JUMP JUMPDEST PUSH2 0x1C0 DUP6 ADD MSTORE ADD SLOAD DUP2 DUP2 AND ISZERO ISZERO PUSH2 0x1E0 DUP5 ADD MSTORE DUP2 DUP2 PUSH1 0x8 SHR AND ISZERO ISZERO PUSH2 0x200 DUP5 ADD MSTORE PUSH1 0x10 SHR AND ISZERO ISZERO PUSH2 0x220 DUP3 ADD MSTORE PUSH1 0x40 MLOAD DUP1 SWAP2 PUSH1 0x20 DUP3 MSTORE PUSH2 0x220 PUSH2 0x643 PUSH2 0x61F PUSH2 0x607 PUSH2 0x5EF PUSH2 0x5D7 PUSH2 0x5BF PUSH2 0x5A7 PUSH2 0x590 PUSH2 0x57A PUSH2 0x564 DUP12 DUP14 PUSH1 0x80 PUSH2 0x54F PUSH2 0x53A PUSH2 0x524 PUSH2 0x50E DUP7 MLOAD PUSH2 0x240 PUSH1 0x20 DUP9 ADD MSTORE PUSH2 0x260 DUP8 ADD SWAP1 PUSH2 0xDFB JUMP JUMPDEST PUSH1 0x20 DUP8 ADD MLOAD DUP7 DUP3 SUB PUSH1 0x1F NOT ADD PUSH1 0x40 DUP9 ADD MSTORE PUSH2 0xDFB JUMP JUMPDEST PUSH1 0x40 DUP7 ADD MLOAD DUP6 DUP3 SUB PUSH1 0x1F NOT ADD PUSH1 0x60 DUP8 ADD MSTORE PUSH2 0xDFB JUMP JUMPDEST PUSH1 0x60 DUP6 ADD MLOAD DUP5 DUP3 SUB PUSH1 0x1F NOT ADD DUP5 DUP7 ADD MSTORE PUSH2 0xDFB JUMP JUMPDEST SWAP3 ADD MLOAD SWAP1 PUSH1 0xA0 PUSH1 0x1F NOT DUP3 DUP6 SUB ADD SWAP2 ADD MSTORE PUSH2 0xDFB JUMP JUMPDEST PUSH1 0xA0 DUP13 ADD MLOAD DUP14 DUP3 SUB PUSH1 0x1F NOT ADD PUSH1 0xC0 DUP16 ADD MSTORE PUSH2 0xDFB JUMP JUMPDEST PUSH1 0xC0 DUP12 ADD MLOAD DUP13 DUP3 SUB PUSH1 0x1F NOT ADD PUSH1 0xE0 DUP15 ADD MSTORE PUSH2 0xDFB JUMP JUMPDEST PUSH1 0xE0 DUP11 ADD MLOAD DUP12 DUP3 SUB PUSH1 0x1F NOT ADD PUSH2 0x100 DUP14 ADD MSTORE PUSH2 0xDFB JUMP JUMPDEST PUSH2 0x100 DUP10 ADD MLOAD DUP11 DUP3 SUB PUSH1 0x1F NOT ADD PUSH2 0x120 DUP13 ADD MSTORE PUSH2 0xDFB JUMP JUMPDEST PUSH2 0x120 DUP9 ADD MLOAD DUP10 DUP3 SUB PUSH1 0x1F NOT ADD PUSH2 0x140 DUP12 ADD MSTORE PUSH2 0xDFB JUMP JUMPDEST PUSH2 0x140 DUP8 ADD MLOAD DUP9 DUP3 SUB PUSH1 0x1F NOT ADD PUSH2 0x160 DUP11 ADD MSTORE PUSH2 0xDFB JUMP JUMPDEST PUSH2 0x160 DUP7 ADD MLOAD DUP8 DUP3 SUB PUSH1 0x1F NOT ADD PUSH2 0x180 DUP10 ADD MSTORE PUSH2 0xDFB JUMP JUMPDEST PUSH2 0x180 DUP6 ADD MLOAD DUP7 DUP3 SUB PUSH1 0x1F NOT ADD PUSH2 0x1A0 DUP9 ADD MSTORE PUSH2 0xDFB JUMP JUMPDEST PUSH2 0x1A0 DUP5 ADD MLOAD PUSH2 0x1C0 DUP7 ADD MSTORE PUSH2 0x1C0 DUP5 ADD MLOAD PUSH1 0x1F NOT DUP7 DUP4 SUB ADD PUSH2 0x1E0 DUP8 ADD MSTORE PUSH2 0xDFB JUMP JUMPDEST SWAP2 PUSH2 0x1E0 DUP2 ADD MLOAD ISZERO ISZERO PUSH2 0x200 DUP6 ADD MSTORE PUSH2 0x200 DUP2 ADD MLOAD ISZERO ISZERO DUP3 DUP6 ADD MSTORE ADD MLOAD ISZERO ISZERO PUSH2 0x240 DUP4 ADD MSTORE SUB SWAP1 RETURN JUMPDEST CALLVALUE PUSH2 0x141 JUMPI PUSH2 0x1E0 CALLDATASIZE PUSH1 0x3 NOT ADD SLT PUSH2 0x141 JUMPI PUSH8 0xFFFFFFFFFFFFFFFF PUSH1 0x4 CALLDATALOAD DUP2 DUP2 GT PUSH2 0x141 JUMPI PUSH2 0x69F SWAP1 CALLDATASIZE SWAP1 PUSH1 0x4 ADD PUSH2 0xD81 JUMP JUMPDEST PUSH1 0x24 CALLDATALOAD DUP3 DUP2 GT PUSH2 0x141 JUMPI PUSH2 0x6B7 SWAP1 CALLDATASIZE SWAP1 PUSH1 0x4 ADD PUSH2 0xD81 JUMP JUMPDEST SWAP2 PUSH1 0x44 CALLDATALOAD DUP2 DUP2 GT PUSH2 0x141 JUMPI PUSH2 0x6D0 SWAP1 CALLDATASIZE SWAP1 PUSH1 0x4 ADD PUSH2 0xD81 JUMP JUMPDEST SWAP1 PUSH1 0x64 CALLDATALOAD DUP2 DUP2 GT PUSH2 0x141 JUMPI PUSH2 0x6E9 SWAP1 CALLDATASIZE SWAP1 PUSH1 0x4 ADD PUSH2 0xD81 JUMP JUMPDEST PUSH1 0x84 CALLDATALOAD DUP3 DUP2 GT PUSH2 0x141 JUMPI PUSH2 0x701 SWAP1 CALLDATASIZE SWAP1 PUSH1 0x4 ADD PUSH2 0xD81 JUMP JUMPDEST PUSH1 0xA4 CALLDATALOAD DUP4 DUP2 GT PUSH2 0x141 JUMPI PUSH2 0x719 SWAP1 CALLDATASIZE SWAP1 PUSH1 0x4 ADD PUSH2 0xD81 JUMP JUMPDEST PUSH1 0xC4 CALLDATALOAD DUP5 DUP2 GT PUSH2 0x141 JUMPI PUSH2 0x731 SWAP1 CALLDATASIZE SWAP1 PUSH1 0x4 ADD PUSH2 0xD81 JUMP JUMPDEST PUSH1 0xE4 CALLDATALOAD DUP6 DUP2 GT PUSH2 0x141 JUMPI PUSH2 0x749 SWAP1 CALLDATASIZE SWAP1 PUSH1 0x4 ADD PUSH2 0xD81 JUMP JUMPDEST PUSH2 0x104 CALLDATALOAD DUP7 DUP2 GT PUSH2 0x141 JUMPI PUSH2 0x762 SWAP1 CALLDATASIZE SWAP1 PUSH1 0x4 ADD PUSH2 0xD81 JUMP JUMPDEST SWAP1 PUSH2 0x124 CALLDATALOAD DUP8 DUP2 GT PUSH2 0x141 JUMPI PUSH2 0x77C SWAP1 CALLDATASIZE SWAP1 PUSH1 0x4 ADD PUSH2 0xD81 JUMP JUMPDEST SWAP3 PUSH2 0x144 CALLDATALOAD DUP9 DUP2 GT PUSH2 0x141 JUMPI PUSH2 0x796 SWAP1 CALLDATASIZE SWAP1 PUSH1 0x4 ADD PUSH2 0xD81 JUMP JUMPDEST SWAP5 PUSH2 0x164 CALLDATALOAD DUP10 DUP2 GT PUSH2 0x141 JUMPI PUSH2 0x7B0 SWAP1 CALLDATASIZE SWAP1 PUSH1 0x4 ADD PUSH2 0xD81 JUMP JUMPDEST SWAP7 PUSH2 0x184 CALLDATALOAD DUP11 DUP2 GT PUSH2 0x141 JUMPI PUSH2 0x7CA SWAP1 CALLDATASIZE SWAP1 PUSH1 0x4 ADD PUSH2 0xD81 JUMP JUMPDEST SWAP9 PUSH2 0x1C4 CALLDATALOAD SWAP11 DUP12 GT PUSH2 0x141 JUMPI PUSH2 0x802 PUSH2 0xD7 PUSH1 0x20 DUP16 SWAP14 PUSH2 0x7EE SWAP1 CALLDATASIZE SWAP1 PUSH1 0x4 ADD PUSH2 0xD81 JUMP JUMPDEST SWAP14 DUP2 PUSH1 0x40 MLOAD SWAP4 DUP3 DUP6 DUP1 SWAP5 MLOAD SWAP4 DUP5 SWAP3 ADD PUSH2 0xDD8 JUMP JUMPDEST PUSH2 0xA92 JUMPI DUP13 SWAP12 DUP15 PUSH1 0x20 PUSH1 0x40 MLOAD SWAP15 DUP16 SWAP1 PUSH2 0x81A DUP3 PUSH2 0xD42 JUMP JUMPDEST DUP2 MSTORE ADD MSTORE PUSH1 0x40 DUP14 ADD MSTORE PUSH1 0x60 DUP13 ADD MSTORE PUSH1 0x80 DUP12 ADD MSTORE PUSH1 0xA0 DUP11 ADD MSTORE PUSH1 0xC0 DUP10 ADD MSTORE PUSH1 0xE0 DUP9 ADD MSTORE PUSH2 0x100 DUP8 ADD MSTORE PUSH2 0x120 DUP7 ADD MSTORE PUSH2 0x140 DUP6 ADD MSTORE PUSH2 0x160 DUP5 ADD MSTORE PUSH2 0x180 DUP4 ADD MSTORE PUSH2 0x1A4 CALLDATALOAD PUSH2 0x1A0 DUP4 ADD MSTORE PUSH2 0x1C0 DUP3 ADD MSTORE PUSH1 0x0 PUSH2 0x1E0 DUP3 ADD MSTORE PUSH1 0x0 PUSH2 0x200 DUP3 ADD MSTORE PUSH1 0x0 PUSH2 0x220 DUP3 ADD MSTORE PUSH1 0xF PUSH1 0x40 MLOAD PUSH1 0x20 DUP2 DUP6 MLOAD PUSH2 0x899 DUP2 DUP4 DUP6 DUP11 ADD PUSH2 0xDD8 JUMP JUMPDEST DUP2 ADD PUSH1 0x1 DUP2 MSTORE SUB ADD SWAP1 KECCAK256 PUSH2 0x8AE DUP4 MLOAD DUP3 PUSH2 0xE5A JUMP JUMPDEST PUSH2 0x8BF PUSH1 0x20 DUP5 ADD MLOAD PUSH1 0x1 DUP4 ADD PUSH2 0xE5A JUMP JUMPDEST PUSH2 0x8D0 PUSH1 0x40 DUP5 ADD MLOAD PUSH1 0x2 DUP4 ADD PUSH2 0xE5A JUMP JUMPDEST PUSH2 0x8E1 PUSH1 0x60 DUP5 ADD MLOAD PUSH1 0x3 DUP4 ADD PUSH2 0xE5A JUMP JUMPDEST PUSH2 0x8F2 PUSH1 0x80 DUP5 ADD MLOAD PUSH1 0x4 DUP4 ADD PUSH2 0xE5A JUMP JUMPDEST PUSH2 0x903 PUSH1 0xA0 DUP5 ADD MLOAD PUSH1 0x5 DUP4 ADD PUSH2 0xE5A JUMP JUMPDEST PUSH2 0x914 PUSH1 0xC0 DUP5 ADD MLOAD PUSH1 0x6 DUP4 ADD PUSH2 0xE5A JUMP JUMPDEST PUSH2 0x925 PUSH1 0xE0 DUP5 ADD MLOAD PUSH1 0x7 DUP4 ADD PUSH2 0xE5A JUMP JUMPDEST PUSH2 0x937 PUSH2 0x100 DUP5 ADD MLOAD PUSH1 0x8 DUP4 ADD PUSH2 0xE5A JUMP JUMPDEST PUSH2 0x949 PUSH2 0x120 DUP5 ADD MLOAD PUSH1 0x9 DUP4 ADD PUSH2 0xE5A JUMP JUMPDEST PUSH2 0x95B PUSH2 0x140 DUP5 ADD MLOAD PUSH1 0xA DUP4 ADD PUSH2 0xE5A JUMP JUMPDEST PUSH2 0x96D PUSH2 0x160 DUP5 ADD MLOAD PUSH1 0xB DUP4 ADD PUSH2 0xE5A JUMP JUMPDEST PUSH2 0x97F PUSH2 0x180 DUP5 ADD MLOAD PUSH1 0xC DUP4 ADD PUSH2 0xE5A JUMP JUMPDEST PUSH2 0x1A0 DUP4 ADD MLOAD PUSH1 0xD DUP3 ADD SSTORE PUSH2 0x99C PUSH2 0x1C0 DUP5 ADD MLOAD PUSH1 0xE DUP4 ADD PUSH2 0xE5A JUMP JUMPDEST ADD SWAP1 PUSH2 0x1E0 DUP2 ADD MLOAD ISZERO ISZERO SWAP1 DUP3 SLOAD PUSH1 0xFF PUSH3 0xFF0000 PUSH2 0x220 PUSH2 0xFF00 PUSH2 0x200 DUP7 ADD MLOAD ISZERO ISZERO PUSH1 0x8 SHL AND SWAP5 ADD MLOAD ISZERO ISZERO PUSH1 0x10 SHL AND SWAP4 AND SWAP1 PUSH3 0xFFFFFF NOT AND OR OR OR SWAP1 SSTORE PUSH1 0x40 MLOAD PUSH1 0x20 DUP2 DUP5 MLOAD PUSH2 0x9ED DUP2 DUP4 DUP6 DUP10 ADD PUSH2 0xDD8 JUMP JUMPDEST DUP2 ADD PUSH1 0x2 DUP2 MSTORE SUB ADD SWAP1 KECCAK256 DUP1 SLOAD SWAP2 PUSH9 0x10000000000000000 DUP4 LT ISZERO PUSH2 0xA7C JUMPI PUSH1 0x1 DUP4 ADD DUP1 DUP4 SSTORE DUP4 LT ISZERO PUSH2 0xA66 JUMPI PUSH2 0xA33 DUP2 PUSH2 0xA3E SWAP5 PUSH2 0xA38 SWAP5 PUSH1 0x0 MSTORE PUSH1 0x20 PUSH1 0x0 KECCAK256 ADD PUSH2 0xE5A JUMP JUMPDEST PUSH2 0xF6A JUMP JUMPDEST SWAP2 PUSH2 0xF6A JUMP JUMPDEST SWAP1 PUSH32 0x5C683C8EF124ED98B107DCF80C644ABC011626816B5B3A73E3F6D518C0CD778 PUSH1 0x0 DUP1 LOG3 STOP JUMPDEST PUSH4 0x4E487B71 PUSH1 0xE0 SHL PUSH1 0x0 MSTORE PUSH1 0x32 PUSH1 0x4 MSTORE PUSH1 0x24 PUSH1 0x0 REVERT JUMPDEST PUSH4 0x4E487B71 PUSH1 0xE0 SHL PUSH1 0x0 MSTORE PUSH1 0x41 PUSH1 0x4 MSTORE PUSH1 0x24 PUSH1 0x0 REVERT JUMPDEST PUSH1 0x40 MLOAD PUSH3 0x461BCD PUSH1 0xE5 SHL DUP2 MSTORE PUSH1 0x20 PUSH1 0x4 DUP3 ADD MSTORE PUSH1 0xE PUSH1 0x24 DUP3 ADD MSTORE PUSH14 0x416C726561647920657869737473 PUSH1 0x90 SHL PUSH1 0x44 DUP3 ADD MSTORE PUSH1 0x64 SWAP1 REVERT JUMPDEST CALLVALUE PUSH2 0x141 JUMPI PUSH1 0x40 CALLDATASIZE PUSH1 0x3 NOT ADD SLT PUSH2 0x141 JUMPI PUSH8 0xFFFFFFFFFFFFFFFF PUSH1 0x4 CALLDATALOAD DUP2 DUP2 GT PUSH2 0x141 JUMPI PUSH2 0xAFA SWAP1 CALLDATASIZE SWAP1 PUSH1 0x4 ADD PUSH2 0xD81 JUMP JUMPDEST PUSH1 0x24 CALLDATALOAD SWAP2 DUP3 GT PUSH2 0x141 JUMPI PUSH2 0xA33 PUSH2 0xB18 PUSH2 0xB6F SWAP4 CALLDATASIZE SWAP1 PUSH1 0x4 ADD PUSH2 0xD81 JUMP JUMPDEST PUSH2 0xB2D PUSH1 0x1 DUP1 PUSH1 0xA0 SHL SUB PUSH1 0x0 SLOAD AND CALLER EQ PUSH2 0xFC7 JUMP JUMPDEST PUSH2 0xB60 PUSH1 0x20 PUSH1 0x40 MLOAD PUSH2 0xB4F PUSH2 0xE7 DUP8 MLOAD SWAP3 DUP5 DUP2 DUP2 DUP12 ADD SWAP6 PUSH2 0xD7 DUP2 DUP4 DUP10 PUSH2 0xDD8 JUMP JUMPDEST PUSH1 0x40 MLOAD DUP1 SWAP4 DUP2 SWAP3 DUP9 MLOAD SWAP3 DUP4 SWAP2 PUSH2 0xDD8 JUMP JUMPDEST DUP2 ADD PUSH1 0x3 DUP2 MSTORE SUB ADD SWAP1 KECCAK256 PUSH2 0xE5A JUMP JUMPDEST PUSH32 0x3F4E037F0753EF36628818D9A11F1D3BD69F98F5146913285923EDFB1C4D7033 PUSH1 0x0 DUP1 LOG2 STOP JUMPDEST CALLVALUE PUSH2 0x141 JUMPI PUSH1 0x20 DUP1 PUSH1 0x3 NOT CALLDATASIZE ADD SLT PUSH2 0x141 JUMPI PUSH8 0xFFFFFFFFFFFFFFFF PUSH1 0x4 CALLDATALOAD DUP2 DUP2 GT PUSH2 0x141 JUMPI DUP3 PUSH2 0xBCD PUSH2 0xBE0 SWAP3 CALLDATASIZE SWAP1 PUSH1 0x4 ADD PUSH2 0xD81 JUMP JUMPDEST DUP2 PUSH1 0x40 MLOAD SWAP4 DUP3 DUP6 DUP1 SWAP5 MLOAD SWAP4 DUP5 SWAP3 ADD PUSH2 0xDD8 JUMP JUMPDEST DUP2 ADD PUSH1 0x2 DUP2 MSTORE SUB ADD SWAP1 KECCAK256 DUP1 SLOAD SWAP2 DUP3 GT PUSH2 0xA7C JUMPI DUP3 SWAP1 PUSH1 0x40 MLOAD SWAP3 PUSH2 0xC08 DUP4 DUP3 PUSH1 0x5 SHL ADD DUP6 PUSH2 0xD5F JUMP JUMPDEST DUP1 DUP5 MSTORE DUP3 DUP5 ADD DUP1 SWAP3 PUSH1 0x0 MSTORE DUP4 PUSH1 0x0 KECCAK256 PUSH1 0x0 SWAP2 JUMPDEST DUP4 DUP4 LT PUSH2 0xC82 JUMPI POP POP POP POP PUSH1 0x40 MLOAD SWAP2 DUP1 DUP4 ADD SWAP4 DUP2 DUP5 MSTORE MLOAD DUP1 SWAP5 MSTORE PUSH1 0x40 DUP4 ADD SWAP4 PUSH1 0x40 DUP2 PUSH1 0x5 SHL DUP6 ADD ADD SWAP3 SWAP2 PUSH1 0x0 SWAP6 JUMPDEST DUP3 DUP8 LT PUSH2 0xC56 JUMPI DUP6 DUP6 SUB DUP7 RETURN JUMPDEST SWAP1 SWAP2 SWAP3 SWAP4 DUP3 DUP1 PUSH2 0xC72 PUSH1 0x1 SWAP4 PUSH1 0x3F NOT DUP11 DUP3 SUB ADD DUP7 MSTORE DUP9 MLOAD PUSH2 0xDFB JUMP JUMPDEST SWAP7 ADD SWAP3 ADD SWAP7 ADD SWAP6 SWAP3 SWAP2 SWAP1 SWAP3 PUSH2 0xC49 JUMP JUMPDEST PUSH1 0x1 DUP7 DUP2 SWAP3 PUSH2 0xC93 DUP6 SWAP11 SWAP10 SWAP11 PUSH2 0x1000 JUMP JUMPDEST DUP2 MSTORE ADD SWAP3 ADD SWAP3 ADD SWAP2 SWAP1 SWAP6 SWAP5 SWAP6 PUSH2 0xC1B JUMP JUMPDEST CALLVALUE PUSH2 0x141 JUMPI PUSH1 0x20 CALLDATASIZE PUSH1 0x3 NOT ADD SLT PUSH2 0x141 JUMPI PUSH1 0x4 CALLDATALOAD PUSH8 0xFFFFFFFFFFFFFFFF DUP2 GT PUSH2 0x141 JUMPI PUSH2 0xCD8 PUSH2 0xD1B SWAP2 CALLDATASIZE SWAP1 PUSH1 0x4 ADD PUSH2 0xD81 JUMP JUMPDEST PUSH1 0xF PUSH2 0xCFC PUSH1 0x20 PUSH1 0x40 MLOAD PUSH2 0xEE PUSH2 0xE7 DUP7 MLOAD SWAP3 DUP5 DUP2 DUP2 DUP11 ADD SWAP6 PUSH2 0xD7 DUP2 DUP4 DUP10 PUSH2 0xDD8 JUMP JUMPDEST DUP2 ADD PUSH1 0x1 DUP2 MSTORE SUB ADD SWAP1 KECCAK256 ADD PUSH3 0x10000 PUSH3 0xFF0000 NOT DUP3 SLOAD AND OR SWAP1 SSTORE PUSH2 0xF6A JUMP JUMPDEST PUSH32 0x4E4003378FE790A19A351B9848E06179B5D6E7A3262A28CFC05F8BACBA35857A PUSH1 0x0 DUP1 LOG2 STOP JUMPDEST PUSH2 0x240 DUP2 ADD SWAP1 DUP2 LT PUSH8 0xFFFFFFFFFFFFFFFF DUP3 GT OR PUSH2 0xA7C JUMPI PUSH1 0x40 MSTORE JUMP JUMPDEST SWAP1 PUSH1 0x1F DUP1 NOT SWAP2 ADD AND DUP2 ADD SWAP1 DUP2 LT PUSH8 0xFFFFFFFFFFFFFFFF DUP3 GT OR PUSH2 0xA7C JUMPI PUSH1 0x40 MSTORE JUMP JUMPDEST DUP2 PUSH1 0x1F DUP3 ADD SLT ISZERO PUSH2 0x141 JUMPI DUP1 CALLDATALOAD SWAP1 PUSH8 0xFFFFFFFFFFFFFFFF DUP3 GT PUSH2 0xA7C JUMPI PUSH1 0x40 MLOAD SWAP3 PUSH2 0xDB6 PUSH1 0x1F DUP5 ADD PUSH1 0x1F NOT AND PUSH1 0x20 ADD DUP6 PUSH2 0xD5F JUMP JUMPDEST DUP3 DUP5 MSTORE PUSH1 0x20 DUP4 DUP4 ADD ADD GT PUSH2 0x141 JUMPI DUP2 PUSH1 0x0 SWAP3 PUSH1 0x20 DUP1 SWAP4 ADD DUP4 DUP7 ADD CALLDATACOPY DUP4 ADD ADD MSTORE SWAP1 JUMP JUMPDEST PUSH1 0x0 JUMPDEST DUP4 DUP2 LT PUSH2 0xDEB JUMPI POP POP PUSH1 0x0 SWAP2 ADD MSTORE JUMP JUMPDEST DUP2 DUP2 ADD MLOAD DUP4 DUP3 ADD MSTORE PUSH1 0x20 ADD PUSH2 0xDDB JUMP JUMPDEST SWAP1 PUSH1 0x20 SWAP2 PUSH2 0xE14 DUP2 MLOAD DUP1 SWAP3 DUP2 DUP6 MSTORE DUP6 DUP1 DUP7 ADD SWAP2 ADD PUSH2 0xDD8 JUMP JUMPDEST PUSH1 0x1F ADD PUSH1 0x1F NOT AND ADD ADD SWAP1 JUMP JUMPDEST SWAP1 PUSH1 0x1 DUP3 DUP2 SHR SWAP3 AND DUP1 ISZERO PUSH2 0xE50 JUMPI JUMPDEST PUSH1 0x20 DUP4 LT EQ PUSH2 0xE3A JUMPI JUMP JUMPDEST PUSH4 0x4E487B71 PUSH1 0xE0 SHL PUSH1 0x0 MSTORE PUSH1 0x22 PUSH1 0x4 MSTORE PUSH1 0x24 PUSH1 0x0 REVERT JUMPDEST SWAP2 PUSH1 0x7F AND SWAP2 PUSH2 0xE2F JUMP JUMPDEST SWAP2 SWAP1 SWAP2 DUP3 MLOAD PUSH8 0xFFFFFFFFFFFFFFFF DUP2 GT PUSH2 0xA7C JUMPI PUSH2 0xE78 DUP3 SLOAD PUSH2 0xE20 JUMP JUMPDEST PUSH1 0x1F DUP2 GT PUSH2 0xF22 JUMPI JUMPDEST POP PUSH1 0x20 DUP1 PUSH1 0x1F DUP4 GT PUSH1 0x1 EQ PUSH2 0xEBE JUMPI POP DUP2 SWAP3 SWAP4 SWAP5 PUSH1 0x0 SWAP3 PUSH2 0xEB3 JUMPI JUMPDEST POP POP DUP2 PUSH1 0x1 SHL SWAP2 PUSH1 0x0 NOT SWAP1 PUSH1 0x3 SHL SHR NOT AND OR SWAP1 SSTORE JUMP JUMPDEST ADD MLOAD SWAP1 POP CODESIZE DUP1 PUSH2 0xE9D JUMP JUMPDEST SWAP1 PUSH1 0x1F NOT DUP4 AND SWAP6 DUP5 PUSH1 0x0 MSTORE DUP3 PUSH1 0x0 KECCAK256 SWAP3 PUSH1 0x0 SWAP1 JUMPDEST DUP9 DUP3 LT PUSH2 0xF0A JUMPI POP POP DUP4 PUSH1 0x1 SWAP6 SWAP7 SWAP8 LT PUSH2 0xEF1 JUMPI JUMPDEST POP POP POP DUP2 SHL ADD SWAP1 SSTORE JUMP JUMPDEST ADD MLOAD PUSH1 0x0 NOT PUSH1 0xF8 DUP5 PUSH1 0x3 SHL AND SHR NOT AND SWAP1 SSTORE CODESIZE DUP1 DUP1 PUSH2 0xEE7 JUMP JUMPDEST DUP1 PUSH1 0x1 DUP6 SWAP7 DUP3 SWAP5 SWAP7 DUP7 ADD MLOAD DUP2 SSTORE ADD SWAP6 ADD SWAP4 ADD SWAP1 PUSH2 0xED2 JUMP JUMPDEST PUSH1 0x0 DUP4 DUP2 MSTORE PUSH1 0x20 DUP2 KECCAK256 PUSH1 0x1F DUP5 ADD PUSH1 0x5 SHR DUP2 ADD SWAP3 PUSH1 0x20 DUP6 LT PUSH2 0xF60 JUMPI JUMPDEST PUSH1 0x1F ADD PUSH1 0x5 SHR ADD SWAP2 JUMPDEST DUP3 DUP2 LT PUSH2 0xF55 JUMPI POP POP PUSH2 0xE81 JUMP JUMPDEST DUP2 DUP2 SSTORE PUSH1 0x1 ADD PUSH2 0xF47 JUMP JUMPDEST SWAP1 SWAP3 POP DUP3 SWAP1 PUSH2 0xF3E JUMP JUMPDEST PUSH2 0xF82 SWAP1 PUSH1 0x20 PUSH1 0x40 MLOAD SWAP3 DUP3 DUP5 DUP1 SWAP5 MLOAD SWAP4 DUP5 SWAP3 ADD PUSH2 0xDD8 JUMP JUMPDEST DUP2 ADD SUB SWAP1 KECCAK256 SWAP1 JUMP JUMPDEST ISZERO PUSH2 0xF91 JUMPI JUMP JUMPDEST PUSH1 0x40 MLOAD PUSH3 0x461BCD PUSH1 0xE5 SHL DUP2 MSTORE PUSH1 0x20 PUSH1 0x4 DUP3 ADD MSTORE PUSH1 0xE PUSH1 0x24 DUP3 ADD MSTORE PUSH14 0x139BDD081C9959DA5CDD195C9959 PUSH1 0x92 SHL PUSH1 0x44 DUP3 ADD MSTORE PUSH1 0x64 SWAP1 REVERT JUMPDEST ISZERO PUSH2 0xFCE JUMPI JUMP JUMPDEST PUSH1 0x40 MLOAD PUSH3 0x461BCD PUSH1 0xE5 SHL DUP2 MSTORE PUSH1 0x20 PUSH1 0x4 DUP3 ADD MSTORE PUSH1 0xA PUSH1 0x24 DUP3 ADD MSTORE PUSH10 0x27B7363C9037BBB732B9 PUSH1 0xB1 SHL PUSH1 0x44 DUP3 ADD MSTORE PUSH1 0x64 SWAP1 REVERT JUMPDEST SWAP1 PUSH1 0x40 MLOAD SWAP2 DUP3 PUSH1 0x0 DUP3 SLOAD SWAP3 PUSH2 0x1014 DUP5 PUSH2 0xE20 JUMP JUMPDEST SWAP1 DUP2 DUP5 MSTORE PUSH1 0x1 SWAP5 DUP6 DUP2 AND SWAP1 DUP2 PUSH1 0x0 EQ PUSH2 0x1083 JUMPI POP PUSH1 0x1 EQ PUSH2 0x1040 JUMPI JUMPDEST POP POP PUSH2 0x103E SWAP3 POP SUB DUP4 PUSH2 0xD5F JUMP JUMPDEST JUMP JUMPDEST SWAP1 SWAP4 SWAP2 POP PUSH1 0x0 MSTORE PUSH1 0x20 SWAP1 DUP2 PUSH1 0x0 KECCAK256 SWAP4 PUSH1 0x0 SWAP2 JUMPDEST DUP2 DUP4 LT PUSH2 0x106B JUMPI POP POP PUSH2 0x103E SWAP4 POP DUP3 ADD ADD CODESIZE DUP1 PUSH2 0x1030 JUMP JUMPDEST DUP6 SLOAD DUP9 DUP5 ADD DUP6 ADD MSTORE SWAP5 DUP6 ADD SWAP5 DUP8 SWAP5 POP SWAP2 DUP4 ADD SWAP2 PUSH2 0x1053 JUMP JUMPDEST SWAP2 POP POP PUSH2 0x103E SWAP5 POP PUSH1 0x20 SWAP3 POP PUSH1 0xFF NOT AND DUP3 DUP5 ADD MSTORE ISZERO ISZERO PUSH1 0x5 SHL DUP3 ADD ADD CODESIZE DUP1 PUSH2 0x1030 JUMP INVALID LOG2 PUSH5 0x6970667358 0x22 SLT KECCAK256 ADDRESS 0xD9 0xCF DUP10 0xDA 0xFC PUSH1 0x55 0xCA 0xA7 0xBB DUP11 0xEB 0xE8 0xAE 0xD6 0xB5 SUB 0x29 POP PUSH5 0xD617FA0C85 0xD4 LOG2 CALLDATACOPY INVALID 0xD PUSH16 0x64736F6C634300081400330000000000 "},"methodIdentifiers":{"getProduct(string)":"68111cce","getProductSecret(string)":"dd9f8567","getProductsByBox(string)":"289496bb","owner()":"8da5cb5b","registerProduct(string,string,string,string,string,string,string,string,string,string,string,string,string,uint256,string)":"4e260d3c","saleComplete(string)":"1768850f","setProductSecret(string,string)":"4ab0af76","shipProduct(string)":"f6e2b1ad","verifyRetailer(string)":"ef7ac6ba"}}}}}