{
  "_format": "hh-sol-artifact-1",
  "contractName": "TrustChain",
  "sourceName": "contracts/TrustChain.sol",
  "abi": [
    {
      "inputs": [],
      "stateMutability": "nonpayable",
      "type": "constructor"
    },
    {
      "anonymous": false,
      "inputs": [
        {
          "indexed": true,
          "internalType": "string",
          "name": "productId",
          "type": "string"
        },
        {
          "indexed": true,
          "internalType": "string",
          "name": "boxId",
          "type": "string"
        }
      ],
      "name": "ProductRegistered",
      "type": "event"
    },
    {
      "anonymous": false,
      "inputs": [
        {
          "indexed": true,
          "internalType": "string",
          "name": "productId",
          "type": "string"
        }
      ],
      "name": "ProductSecretSet",
      "type": "event"
    },
    {
      "anonymous": false,
      "inputs": [
        {
          "indexed": true,
          "internalType": "string",
          "name": "productId",
          "type": "string"
        }
      ],
      "name": "ProductShipped",
      "type": "event"
    },
    {
      "anonymous": false,
      "inputs": [
        {
          "indexed": true,
          "internalType": "string",
          "name": "productId",
          "type": "string"
        }
      ],
      "name": "ProductSold",
      "type": "event"
    },
    {
      "anonymous": false,
      "inputs": [
        {
          "indexed": true,
          "internalType": "string",
          "name": "productId",
          "type": "string"
        }
      ],
      "name": "ProductVerified",
      "type": "event"
    },
    {
      "inputs": [
        {
          "internalType": "string",
          "name": "_productId",
          "type": "string"
        }
      ],
      "name": "getProduct",
      "outputs": [
        {
          "components": [
            {
              "internalType": "string",
              "name": "productId",
              "type": "string"
            },
            {
              "internalType": "string",
              "name": "boxId",
              "type": "string"
            },
            {
              "internalType": "string",
              "name": "name",
              "type": "string"
            },
            {
              "internalType": "string",
              "name": "category",
              "type": "string"
            },
            {
              "internalType": "string",
              "name": "manufacturer",
              "type": "string"
            },
            {
              "internalType": "string",
              "name": "manufacturerDate",
              "type": "string"
            },
            {
              "internalType": "string",
              "name": "manufacturePlace",
              "type": "string"
            },
            {
              "internalType": "string",
              "name": "modelNumber",
              "type": "string"
            },
            {
              "internalType": "string",
              "name": "serialNumber",
              "type": "string"
            },
            {
              "internalType": "string",
              "name": "warrantyPeriod",
              "type": "string"
            },
            {
              "internalType": "string",
              "name": "batchNumber",
              "type": "string"
            },
            {
              "internalType": "string",
              "name": "color",
              "type": "string"
            },
            {
              "internalType": "string",
              "name": "specs",
              "type": "string"
            },
            {
              "internalType": "uint256",
              "name": "price",
              "type": "uint256"
            },
            {
              "internalType": "string",
              "name": "image",
              "type": "string"
            },
            {
              "internalType": "bool",
              "name": "shipped",
              "type": "bool"
            },
            {
              "internalType": "bool",
              "name": "verifiedByRetailer",
              "type": "bool"
            },
            {
              "internalType": "bool",
              "name": "sold",
              "type": "bool"
            }
          ],
          "internalType": "struct TrustChain.Product",
          "name": "",
          "type": "tuple"
        }
      ],
      "stateMutability": "view",
      "type": "function"
    },
    {
      "inputs": [
        {
          "internalType": "string",
          "name": "_productId",
          "type": "string"
        }
      ],
      "name": "getProductSecret",
      "outputs": [
        {
          "internalType": "string",
          "name": "",
          "type": "string"
        }
      ],
      "stateMutability": "view",
      "type": "function"
    },
    {
      "inputs": [
        {
          "internalType": "string",
          "name": "_boxId",
          "type": "string"
        }
      ],
      "name": "getProductsByBox",
      "outputs": [
        {
          "internalType": "string[]",
          "name": "",
          "type": "string[]"
        }
      ],
      "stateMutability": "view",
      "type": "function"
    },
    {
      "inputs": [],
      "name": "owner",
      "outputs": [
        {
          "internalType": "address",
          "name": "",
          "type": "address"
        }
      ],
      "stateMutability": "view",
      "type": "function"
    },
    {
      "inputs": [
        {
          "internalType": "string",
          "name": "_productId",
          "type": "string"
        },
        {
          "internalType": "string",
          "name": "_boxId",
          "type": "string"
        },
        {
          "internalType": "string",
          "name": "_name",
          "type": "string"
        },
        {
          "internalType": "string",
          "name": "_category",
          "type": "string"
        },
        {
          "internalType": "string",
          "name": "_manufacturer",
          "type": "string"
        },
        {
          "internalType": "string",
          "name": "_manufacturerDate",
          "type": "string"
        },
        {
          "internalType": "string",
          "name": "_manufacturePlace",
          "type": "string"
        },
        {
          "internalType": "string",
          "name": "_modelNumber",
          "type": "string"
        },
        {
          "internalType": "string",
          "name": "_serialNumber",
          "type": "string"
        },
        {
          "internalType": "string",
          "name": "_warrantyPeriod",
          "type": "string"
        },
        {
          "internalType": "string",
          "name": "_batchNumber",
          "type": "string"
        },
        {
          "internalType": "string",
          "name": "_color",
          "type": "string"
        },
        {
          "internalType": "string",
          "name": "_specs",
          "type": "string"
        },
        {
          "internalType": "uint256",
          "name": "_price",
          "type": "uint256"
        },
        {
          "internalType": "string",
          "name": "_image",
          "type": "string"
        }
      ],
      "name": "registerProduct",
      "outputs": [],
      "stateMutability": "nonpayable",
      "type": "function"
    },
    {
      "inputs": [
        {
          "internalType": "string",
          "name": "_productId",
          "type": "string"
        }
      ],
      "name": "saleComplete",
      "outputs": [],
      "stateMutability": "nonpayable",
      "type": "function"
    },
    {
      "inputs": [
        {
          "internalType": "string",
          "name": "_productId",
          "type": "string"
        },
        {
          "internalType": "string",
          "name": "_secret",
          "type": "string"
        }
      ],
      "name": "setProductSecret",
      "outputs": [],
      "stateMutability": "nonpayable",
      "type": "function"
    },
    {
      "inputs": [
        {
          "internalType": "string",
          "name": "_productId",
          "type": "string"
        }
      ],
      "name": "shipProduct",
      "outputs": [],
      "stateMutability": "nonpayable",
      "type": "function"
    },
    {
      "inputs": [
        {
          "internalType": "string",
          "name": "_productId",
          "type": "string"
        }
      ],
      "name": "verifyRetailer",
      "outputs": [],
      "stateMutability": "nonpayable",
      "type": "function"
    }
  ],
  "bytecode": "0x6080806040523461002857600080546001600160a01b031916331790556110dc908161002e8239f35b600080fdfe6080604052600436101561001257600080fd5b60003560e01c80631768850f14610ca4578063289496bb14610b965780634ab0af7614610ac85780634e260d3c1461066c57806368111cce146102b05780638da5cb5b14610287578063dd9f8567146101e2578063ef7ac6ba146101465763f6e2b1ad1461007f57600080fd5b346101415760203660031901126101415760043567ffffffffffffffff8111610141576100b361011a913690600401610d81565b600f6100ff60206040516100ee6100e78651928481818a01956100d7818389610dd8565b8101600181520301902054610e20565b1515610f8a565b604051809381928751928391610dd8565b8101600181520301902001600160ff19825416179055610f6a565b7f9dbe2d347001eec4f99473edc6161746246c3bd920ebc7aec9ea509774a6a87c600080a2005b600080fd5b346101415760203660031901126101415760043567ffffffffffffffff81116101415761017a6101bb913690600401610d81565b600f61019e60206040516100ee6100e78651928481818a01956100d7818389610dd8565b810160018152030190200161010061ff0019825416179055610f6a565b7f9bb3d92ff53ce504ee358d5ff79f13221b4836773184e8ec3e9e299f7d032aee600080a2005b34610141576020806003193601126101415760043567ffffffffffffffff81116101415761025f8261021b61026e933690600401610d81565b61023060018060a01b03600054163314610fc7565b6040519061024e6100e78251938581818601966100d781838a610dd8565b604051938492839251928391610dd8565b81016003815203019020611000565b90610283604051928284938452830190610dfb565b0390f35b34610141576000366003190112610141576000546040516001600160a01b039091168152602090f35b346101415760203660031901126101415760043567ffffffffffffffff81116101415760206102e6610384923690600401610d81565b60006102206040516102f781610d42565b606081526060858201526060604082015260608082015260606080820152606060a0820152606060c0820152606060e082015260606101008201526060610120820152606061014082015260606101608201526060610180820152826101a082015260606101c0820152826101e08201528261020082015201528160405193828580945193849201610dd8565b8101600181520301902060ff600f6040519261039f84610d42565b6103a881611000565b84526103b660018201611000565b60208501526103c760028201611000565b60408501526103d860038201611000565b60608501526103e960048201611000565b60808501526103fa60058201611000565b60a085015261040b60068201611000565b60c085015261041c60078201611000565b60e085015261042d60088201611000565b61010085015261043f60098201611000565b610120850152610451600a8201611000565b610140850152610463600b8201611000565b610160850152610475600c8201611000565b610180850152600d8101546101a0850152610492600e8201611000565b6101c0850152015481811615156101e0840152818160081c16151561020084015260101c16151561022082015260405180916020825261022061064361061f6106076105ef6105d76105bf6105a761059061057a6105648b8d608061054f61053a61052461050e86516102406020880152610260870190610dfb565b6020870151868203601f19016040880152610dfb565b6040860151858203601f19016060870152610dfb565b6060850151848203601f190184860152610dfb565b9201519060a0601f1982850301910152610dfb565b60a08c01518d8203601f190160c08f0152610dfb565b60c08b01518c8203601f190160e08e0152610dfb565b60e08a01518b8203601f19016101008d0152610dfb565b6101008901518a8203601f19016101208c0152610dfb565b610120880151898203601f19016101408b0152610dfb565b610140870151888203601f19016101608a0152610dfb565b610160860151878203601f1901610180890152610dfb565b610180850151868203601f19016101a0880152610dfb565b6101a08401516101c08601526101c0840151601f19868303016101e0870152610dfb565b916101e08101511515610200850152610200810151151582850152015115156102408301520390f35b34610141576101e03660031901126101415767ffffffffffffffff6004358181116101415761069f903690600401610d81565b602435828111610141576106b7903690600401610d81565b91604435818111610141576106d0903690600401610d81565b90606435818111610141576106e9903690600401610d81565b60843582811161014157610701903690600401610d81565b60a43583811161014157610719903690600401610d81565b60c43584811161014157610731903690600401610d81565b60e43585811161014157610749903690600401610d81565b6101043586811161014157610762903690600401610d81565b90610124358781116101415761077c903690600401610d81565b926101443588811161014157610796903690600401610d81565b9461016435898111610141576107b0903690600401610d81565b96610184358a8111610141576107ca903690600401610d81565b986101c4359a8b11610141576108026100d760208f9d6107ee903690600401610d81565b9d8160405193828580945193849201610dd8565b610a92578c9b8e60206040519e8f9061081a82610d42565b8152015260408d015260608c015260808b015260a08a015260c089015260e08801526101008701526101208601526101408501526101608401526101808301526101a4356101a08301526101c082015260006101e082015260006102008201526000610220820152600f60405160208185516108998183858a01610dd8565b810160018152030190206108ae835182610e5a565b6108bf602084015160018301610e5a565b6108d0604084015160028301610e5a565b6108e1606084015160038301610e5a565b6108f2608084015160048301610e5a565b61090360a084015160058301610e5a565b61091460c084015160068301610e5a565b61092560e084015160078301610e5a565b61093761010084015160088301610e5a565b61094961012084015160098301610e5a565b61095b610140840151600a8301610e5a565b61096d610160840151600b8301610e5a565b61097f610180840151600c8301610e5a565b6101a0830151600d82015561099c6101c0840151600e8301610e5a565b01906101e0810151151590825460ff62ff000061022061ff00610200860151151560081b16940151151560101b1693169062ffffff1916171717905560405160208184516109ed8183858901610dd8565b8101600281520301902080549168010000000000000000831015610a7c5760018301808355831015610a6657610a3381610a3e94610a3894600052602060002001610e5a565b610f6a565b91610f6a565b907f05c683c8ef124ed98b107dcf80c644abc011626816b5b3a73e3f6d518c0cd778600080a3005b634e487b7160e01b600052603260045260246000fd5b634e487b7160e01b600052604160045260246000fd5b60405162461bcd60e51b815260206004820152600e60248201526d416c72656164792065786973747360901b6044820152606490fd5b346101415760403660031901126101415767ffffffffffffffff60043581811161014157610afa903690600401610d81565b60243591821161014157610a33610b18610b6f933690600401610d81565b610b2d60018060a01b03600054163314610fc7565b610b606020604051610b4f6100e78751928481818b01956100d7818389610dd8565b604051809381928851928391610dd8565b81016003815203019020610e5a565b7f3f4e037f0753ef36628818d9a11f1d3bd69f98f5146913285923edfb1c4d7033600080a2005b34610141576020806003193601126101415767ffffffffffffffff6004358181116101415782610bcd610be0923690600401610d81565b8160405193828580945193849201610dd8565b810160028152030190208054918211610a7c57829060405192610c08838260051b0185610d5f565b8084528284018092600052836000206000915b838310610c825750505050604051918083019381845251809452604083019360408160051b85010192916000955b828710610c565785850386f35b909192938280610c72600193603f198a82030186528851610dfb565b9601920196019592919092610c49565b6001868192610c93859a999a611000565b815201920192019190959495610c1b565b346101415760203660031901126101415760043567ffffffffffffffff811161014157610cd8610d1b913690600401610d81565b600f610cfc60206040516100ee6100e78651928481818a01956100d7818389610dd8565b81016001815203019020016201000062ff000019825416179055610f6a565b7f4e4003378fe790a19a351b9848e06179b5d6e7a3262a28cfc05f8bacba35857a600080a2005b610240810190811067ffffffffffffffff821117610a7c57604052565b90601f8019910116810190811067ffffffffffffffff821117610a7c57604052565b81601f820112156101415780359067ffffffffffffffff8211610a7c5760405192610db6601f8401601f191660200185610d5f565b8284526020838301011161014157816000926020809301838601378301015290565b60005b838110610deb5750506000910152565b8181015183820152602001610ddb565b90602091610e1481518092818552858086019101610dd8565b601f01601f1916010190565b90600182811c92168015610e50575b6020831014610e3a57565b634e487b7160e01b600052602260045260246000fd5b91607f1691610e2f565b919091825167ffffffffffffffff8111610a7c57610e788254610e20565b601f8111610f22575b50602080601f8311600114610ebe575081929394600092610eb3575b50508160011b916000199060031b1c1916179055565b015190503880610e9d565b90601f198316958460005282600020926000905b888210610f0a57505083600195969710610ef1575b505050811b019055565b015160001960f88460031b161c19169055388080610ee7565b80600185968294968601518155019501930190610ed2565b600083815260208120601f840160051c81019260208510610f60575b601f0160051c01915b828110610f55575050610e81565b818155600101610f47565b9092508290610f3e565b610f8290602060405192828480945193849201610dd8565b810103902090565b15610f9157565b60405162461bcd60e51b815260206004820152600e60248201526d139bdd081c9959da5cdd195c995960921b6044820152606490fd5b15610fce57565b60405162461bcd60e51b815260206004820152600a60248201526927b7363c9037bbb732b960b11b6044820152606490fd5b906040519182600082549261101484610e20565b9081845260019485811690816000146110835750600114611040575b505061103e92500383610d5f565b565b9093915060005260209081600020936000915b81831061106b57505061103e93508201013880611030565b85548884018501529485019487945091830191611053565b91505061103e94506020925060ff191682840152151560051b820101388061103056fea264697066735822122030d9cf89dafc6055caa7bb8aebe8aed6b503295064d617fa0c85d4a237fe0d6f64736f6c63430008140033",
  "linkReferences": {},
  "deployedLinkReferences": {}
}